{
  "_format": "hh-sol-artifact-1",
  "contractName": "Crowdfunding",
  "sourceName": "contracts/Crowdfunding.sol",
  "abi": [
    {
      "anonymous": false,
      "inputs": [
        {
          "indexed": false,
          "internalType": "uint256",
          "name": "id",
          "type": "uint256"
        },
        {
          "indexed": false,
          "internalType": "address",
          "name": "owner",
          "type": "address"
        },
        {
          "indexed": false,
          "internalType": "uint256",
          "name": "goal",
          "type": "uint256"
        }
      ],
      "name": "CampaignCreated",
      "type": "event"
    },
    {
      "anonymous": false,
      "inputs": [
        {
          "indexed": false,
          "internalType": "uint256",
          "name": "id",
          "type": "uint256"
        },
        {
          "indexed": false,
          "internalType": "address",
          "name": "contributor",
          "type": "address"
        },
        {
          "indexed": false,
          "internalType": "uint256",
          "name": "amount",
          "type": "uint256"
        }
      ],
      "name": "PledgeReceived",
      "type": "event"
    },
    {
      "inputs": [],
      "name": "campaignCount",
      "outputs": [
        {
          "internalType": "uint256",
          "name": "",
          "type": "uint256"
        }
      ],
      "stateMutability": "view",
      "type": "function"
    },
    {
      "inputs": [
        {
          "internalType": "uint256",
          "name": "",
          "type": "uint256"
        }
      ],
      "name": "campaigns",
      "outputs": [
        {
          "internalType": "address payable",
          "name": "owner",
          "type": "address"
        },
        {
          "internalType": "uint256",
          "name": "goal",
          "type": "uint256"
        },
        {
          "internalType": "uint256",
          "name": "pledged",
          "type": "uint256"
        },
        {
          "internalType": "bool",
          "name": "completed",
          "type": "bool"
        }
      ],
      "stateMutability": "view",
      "type": "function"
    },
    {
      "inputs": [
        {
          "internalType": "uint256",
          "name": "_goal",
          "type": "uint256"
        }
      ],
      "name": "createCampaign",
      "outputs": [],
      "stateMutability": "nonpayable",
      "type": "function"
    },
    {
      "inputs": [
        {
          "internalType": "uint256",
          "name": "_id",
          "type": "uint256"
        }
      ],
      "name": "getCampaign",
      "outputs": [
        {
          "components": [
            {
              "internalType": "address payable",
              "name": "owner",
              "type": "address"
            },
            {
              "internalType": "uint256",
              "name": "goal",
              "type": "uint256"
            },
            {
              "internalType": "uint256",
              "name": "pledged",
              "type": "uint256"
            },
            {
              "internalType": "bool",
              "name": "completed",
              "type": "bool"
            }
          ],
          "internalType": "struct Crowdfunding.Campaign",
          "name": "",
          "type": "tuple"
        }
      ],
      "stateMutability": "view",
      "type": "function"
    },
    {
      "inputs": [
        {
          "internalType": "uint256",
          "name": "_id",
          "type": "uint256"
        }
      ],
      "name": "pledge",
      "outputs": [],
      "stateMutability": "payable",
      "type": "function"
    }
  ],
  "bytecode": "0x6080604052348015600f57600080fd5b506108998061001f6000396000f3fe60806040526004361061004a5760003560e01c8063141961bc1461004f5780635598f8cc1461008f5780637274e30d146100cc5780637326c9c0146100f7578063a3303a7514610113575b600080fd5b34801561005b57600080fd5b506100766004803603810190610071919061054e565b61013c565b60405161008694939291906105e6565b60405180910390f35b34801561009b57600080fd5b506100b660048036038101906100b1919061054e565b610199565b6040516100c391906106ad565b60405180910390f35b3480156100d857600080fd5b506100e161024a565b6040516100ee91906106c8565b60405180910390f35b610111600480360381019061010c919061054e565b610250565b005b34801561011f57600080fd5b5061013a6004803603810190610135919061054e565b6103ae565b005b60006020528060005260406000206000915090508060000160009054906101000a900473ffffffffffffffffffffffffffffffffffffffff16908060010154908060020154908060030160009054906101000a900460ff16905084565b6101a16104d3565b6000808381526020019081526020016000206040518060800160405290816000820160009054906101000a900473ffffffffffffffffffffffffffffffffffffffff1673ffffffffffffffffffffffffffffffffffffffff1673ffffffffffffffffffffffffffffffffffffffff16815260200160018201548152602001600282015481526020016003820160009054906101000a900460ff1615151515815250509050919050565b60015481565b600080600083815260200190815260200160002090508060030160009054906101000a900460ff16156102b8576040517f08c379a00000000000000000000000000000000000000000000000000000000081526004016102af90610740565b60405180910390fd5b348160020160008282546102cc919061078f565b925050819055507f4da4cfb37164d06502a029021919a2a499ea26897e6e9cc09fab01e7ca5b0e14823334604051610306939291906107e4565b60405180910390a180600101548160020154106103aa5760018160030160006101000a81548160ff0219169083151502179055508060000160009054906101000a900473ffffffffffffffffffffffffffffffffffffffff1673ffffffffffffffffffffffffffffffffffffffff166108fc82600201549081150290604051600060405180830381858888f193505050501580156103a8573d6000803e3d6000fd5b505b5050565b600160008154809291906103c19061081b565b919050555060405180608001604052803373ffffffffffffffffffffffffffffffffffffffff1681526020018281526020016000815260200160001515815250600080600154815260200190815260200160002060008201518160000160006101000a81548173ffffffffffffffffffffffffffffffffffffffff021916908373ffffffffffffffffffffffffffffffffffffffff160217905550602082015181600101556040820151816002015560608201518160030160006101000a81548160ff0219169083151502179055509050507f63e3678c8493a16f8ba43ae9e547231762ca04526dac2c388bd2c26d8940185160015433836040516104c8939291906107e4565b60405180910390a150565b6040518060800160405280600073ffffffffffffffffffffffffffffffffffffffff16815260200160008152602001600081526020016000151581525090565b600080fd5b6000819050919050565b61052b81610518565b811461053657600080fd5b50565b60008135905061054881610522565b92915050565b60006020828403121561056457610563610513565b5b600061057284828501610539565b91505092915050565b600073ffffffffffffffffffffffffffffffffffffffff82169050919050565b60006105a68261057b565b9050919050565b6105b68161059b565b82525050565b6105c581610518565b82525050565b60008115159050919050565b6105e0816105cb565b82525050565b60006080820190506105fb60008301876105ad565b61060860208301866105bc565b61061560408301856105bc565b61062260608301846105d7565b95945050505050565b6106348161059b565b82525050565b61064381610518565b82525050565b610652816105cb565b82525050565b60808201600082015161066e600085018261062b565b506020820151610681602085018261063a565b506040820151610694604085018261063a565b5060608201516106a76060850182610649565b50505050565b60006080820190506106c26000830184610658565b92915050565b60006020820190506106dd60008301846105bc565b92915050565b600082825260208201905092915050565b7f43616d706169676e20636f6d706c657465640000000000000000000000000000600082015250565b600061072a6012836106e3565b9150610735826106f4565b602082019050919050565b600060208201905081810360008301526107598161071d565b9050919050565b7f4e487b7100000000000000000000000000000000000000000000000000000000600052601160045260246000fd5b600061079a82610518565b91506107a583610518565b92508282019050808211156107bd576107bc610760565b5b92915050565b60006107ce8261057b565b9050919050565b6107de816107c3565b82525050565b60006060820190506107f960008301866105bc565b61080660208301856107d5565b61081360408301846105bc565b949350505050565b600061082682610518565b91507fffffffffffffffffffffffffffffffffffffffffffffffffffffffffffffffff820361085857610857610760565b5b60018201905091905056fea2646970667358221220d9bf7be698259548c10e8c00986185027b9f61e8f09787db7355f12b165de72764736f6c634300081b0033",
  "linkReferences": {},
  "deployedLinkReferences": {}
}